:020000040800F2
:10000000080800207D0200080127000809260008D2
:10001000FD26000899150008552C00080000000076
:10002000000000000000000000000000352700086C
:100030009D1500080000000031270008692700080E
:10004000970200089702000897020008970200082C
:10005000970200089702000897020008970200081C
:10006000970200089702000897020008970200080C
:1000700097020008970200089702000897020008FC
:1000800097020008970200089702000897020008EC
:1000900097020008970200089702000897020008DC
:1000A00097020008970200089702000897020008CC
:1000B00097020008352800089702000897020008F8
:1000C00097020008970200089702000897020008AC
:1000D00097020008452C00089702000897020008C4
:1000E000970200089702000897020008970200088C
:1000F000970200089702000897020008970200087C
:10010000970200089702000897020008970200086B
:10011000970200089702000897020008970200085B
:10012000970200089702000897020008970200084B
:10013000970200089702000897020008970200083B
:10014000970200089702000897020008970200082B
:10015000970200089702000897020008970200081B
:10016000970200089702000897020008970200080B
:10017000970200089702000897020008000000009C
:1001800097020008970200089702000897020008EB
:1001900097020008970200089702000897020008DB
:1001A00097020008970200089702000800F002F882
:1001B00000F054F80AA090E8000C82448344AAF1AD
:1001C0000107DA4501D100F049F8AFF2090EBAE8AB
:1001D0000F0013F0010F18BFFB1A43F0010318477B
:1001E0009C350000BC350000103A24BF78C878C1A7
:1001F000FAD8520724BF30C830C144BF04680C602D
:10020000704700000023002400250026103A28BF74
:1002100078C1FBD8520728BF30C148BF0B60704778
:10022000662903F04082732900F03682002070476F
:100230001FB503F02BFA9DE8030000F0F5FD00F078
:10024000D7FD04000020002103F00AFAE06000F06E
:1002500001FD1FBD10B500F066FD10BD00F09EFD54
:100260001146FFF7E5FF02F0E5FD00F0CDFF03B416
:10027000FFF7F0FF03BC00F063FA00000948804775
:1002800009480047FEE7FEE7FEE7FEE7FEE7FEE778
:10029000FEE7FEE7FEE7FEE704480549054A064B90
:1002A0007047000021280008AD0100080802002066
:1002B00008080020080400200804002053EA020C6B
:1002C00000F069802DE9F04B4FF00006002B1FBFB6
:1002D000B3FA83F503FA05F424FA05F65E4012BF7B
:1002E0001643B2FA82F502FA05F4C5F120051EBFE5
:1002F00022FA05FC44EA0C04203556EA044C4FEA85
:10030000144418BF641C4FF000084FF000099042DD
:1003100071EB030C39D3002919BFB1FA81F701FA47
:1003200007F6B0FA80F700FA07F6C7F120071EBFFC
:1003300020FA07FC46EA0C062037B6FBF4FCA7EBD4
:100340000507103F07F01F0BCBF120062CFA06F62D
:100350000CFA0BFB44BFB3460026202FA4BF5E4619
:100360004FF0000B5BEA060C08BF4FF0010B19EBD6
:100370000B0948EB0608ABFB027C06FB02CC0BFB2F
:1003800003CCC01B71EB0C01C1E70B460246414692
:100390004846BDE8F08B13B5084318BF4FF0FF3057
:1003A0000146AFF30080BDE81C4070470FB404491C
:1003B00010B503AA029800F073F910BC5DF814FBA5
:1003C0006C00002070B50C460546012A05D028783F
:1003D000800600D5EA69002302E0012305E05B1CEA
:1003E000934202D2E05C0028F9D1A869E618C01A4D
:1003F000A861286A184428622846AFF3008004E008
:10040000D5E9012114F8010B9047B442F8D32846EE
:10041000AFF3008070BD2DE9F0410F460546002086
:1004200028622846E968884770B3252805D0D5E9B1
:1004300001219047286A401CF2E7E9682846002617
:1004400088476C2804460AD0682C08D04C2C35D03C
:100450006A2C31D0742C31D07A2C2FD016E0E96878
:10046000064628468847B042044608D16C2E23D061
:100470004FF480662846E9688847044606E06C2EFB
:1004800003D04FF4807601E01EE04026E4B1A4F1F1
:100490004100192802D8203446F400663A46214625
:1004A00028462E60FFF7BCFE60B1012808D0FF1D72
:1004B00027F007070837B4E78026DBE70026D9E7EF
:1004C0003F1DAEE72046B2E7286ABDE8F08110B5CF
:1004D000431C02E010F8011B71B18107FAD14FF003
:1004E000013202C88C1A8C4314EAC211F9D0C01A26
:1004F0000A0603D0C01E10BDC01A10BD0A0401D0E8
:10050000801E10BD0902FCD0401E10BD032A40F21F
:10051000308010F0030C00F0158011F8013BBCF1A5
:10052000020F624498BF11F801CB00F8013B38BFBD
:1005300011F8013BA2F1040298BF00F801CB38BFCB
:1005400000F8013B11F0030300F0C780083AC0F047
:10055000088051F8043B083A51F804CBA0E8081091
:10056000F5E7121D5CBF51F8043B40F8043BAFF3C4
:100570000080D20724BF11F8013B11F801CB48BF1E
:1005800011F8012B24BF00F8013B00F801CB48BF54
:1005900000F8012B70474FF0000200B51346944657
:1005A0009646203922BFA0E80C50A0E80C50B1F1CB
:1005B0002001BFF4F7AF090728BFA0E80C5048BFDF
:1005C0000CC05DF804EB890028BF40F8042B08BF7D
:1005D000704748BF20F8022B11F0804F18BF00F879
:1005E000012B70470000000030B44FF0013C50F880
:1005F000042B51F8043BCCFA52F4D51A20D1FCB9A3
:1006000050F8042B51F8043BCCFA52F4D51A17D108
:10061000B4B950F8042B51F8043BCCFA52F4D51A73
:100620000ED16CB950F8042B51F8043BCCFA52F4BB
:10063000D51A05D1002CDAD030BC4FF0000070473D
:1006400029BAB1FA81F111F01801D1F120008440EA
:10065000F2D1CA40CB4012F0FF0213F0FF0330BCCE
:10066000D01A7047704770477047000000487047C5
:100670001401002010B5436913B1AFF3008001E00D
:10068000FFF7A0FE012010BD127800F124010A70CE
:1006900000224A700122EDE711684FF0FF32E9E7CE
:1006A000074B70B50D467B4400F0BDFA0446284662
:1006B00000F0CCFA10B14FF0FF3070BD204670BD95
:1006C0007727000010B5002000F060FBFFF7C2FDA7
:1006D000BDE81040012000F033B810B5203AC0F05A
:1006E0000B80B1E81850A0E81850B1E81850A0E805
:1006F0001850203ABFF4F5AF5FEA027C24BFB1E89E
:100700001850A0E8185044BF18C918C0BDE81040E0
:100710005FEA827C24BF51F8043B40F8043B08BFE9
:100720007047D20728BF31F8023B48BF11F8012BB0
:1007300028BF20F8023B48BF00F8012B704700009B
:1007400001491820ABBEFEE72600020000487047B2
:100750001401002070B5064600F046FB056806F15E
:100760000B0020F00704B4429CBF002070BD2B4654
:100770006A68BAB11068A04210D304F10801884237
:100780003CBF5068586007D3516810194160116828
:10079000091B016058601460101D70BD134652683B
:1007A000002AE7D12146284600F02AFB0028DED1A6
:1007B00070BD70B50446051F00F016FB0068002CE4
:1007C00014BF446870BD002C18BFAC423CBF20462B
:1007D0006468F8D301680A18AA4218BF456003D1BB
:1007E0002A6805461144016028684119A1421CBFCE
:1007F0006C6070BD6168696021680844286070BDE4
:100800002DE9FF4F0C461E464FF0FF378BB0D2E963
:100810000001DDF860800A908A46C1F30A5505B9E7
:100820003D46002108464FF00000BAF1000F00F4E9
:10083000400005DA00EB80004FF4400101EA50006F
:100840004FEA9059B9F1010F00DDB9460A9850EA14
:100850004A000ED044F61050A5F2FF3545432F1440
:10086000B8F1000F1ED07542291E1EDDC9F100022D
:100870001CE0B8F1010F4FF0000001D0302103E07F
:10088000F24305E02154401CB042FBDB304600221D
:10089000002121540B99C1F80880C1E900200FB054
:1008A000BDE8F08FBD1B6D1CDEE74A4600DA6942E9
:1008B00006A800F075FB06AB93E8070003AB83E8DE
:1008C000070050460A9902F0EBFA8DE80700A0F500
:1008D00000501F3800900398002D0ADD42F21F01DE
:1008E0004A460844002303A90390684602F054FDD9
:1008F00009E0A0F500504A461F38002303A90390E1
:10090000684602F05EFD8DE807000004000C03D08D
:100910004FF0FF30410800E01046B8F1000F03D05F
:100920000022009215461EE0751E05D400F0B2FAB2
:10093000303262556D1EF9D5B3460122084302D00C
:1009400000227F1C04E02078302801D100227F1E85
:10095000002A099784D01DE0112D07DA00F09AFAD9
:10096000303262556D1C50EA0102F5D1084302D0C5
:100970000098C8B10EE00021681E05E0235C625CAF
:1009800063542254401E491C8142F7DBAB46A81B2E
:10099000401E0990002004F80B000B98099AC0F83B
:1009A0000880C0E9002B7AE711264FF0000857E7CE
:1009B0002DE9F04F88460446D21D22F0070191B080
:1009C000D1E90001CDE90A0102F032FE02460B989E
:1009D000C00F01D02D2007E02068810701D52B2012
:1009E00002E0202101EAC000032A099001D0072A71
:1009F00005DB03464146204600F092FA0BE12078E1
:100A0000800601D5E06900E00620B8F1650F814657
:100A100006D0B8F1660F18D0B8F1670F70D131E089
:100A20000020B9F1110F009001DB112301E009F161
:100A300001030AAA01A90CA8FFF7E2FEDDE90C7088
:100A4000002609F10105834647E001204B4600904E
:100A50004FF000470AAA01A90CA8FFF7D1FEDDE973
:100A60000DB00C995D46002610B909F101000D1872
:100A7000B9EB050003D4C0F1FF3609F10105A5EB80
:100A800009002BE0B9F1010F01DA4FF00109002054
:100A9000B9F1110F0090484601DD112300E0034633
:100AA0000AAA01A90CA8FFF7ABFEDDE90C704D46C0
:100AB00000268346207800070AD4AB4500DA5D465D
:100AC00001A8012D04DD411911F8011C302907D0BE
:100AD0004F4502DA17F1040F04DA012082460FE0D5
:100AE0006D1EEEE7002F02DCED1B3E4403E0781C98
:100AF000A84200DD7D1CB81B00F1010A4FF0004741
:100B00002078000703D4AA4501DB4FF0FF3A00210B
:100B1000B7F1004F0DF143088DF8431024D00220A7
:100B20002B23002F01DA7F422D230A21021EA0F180
:100B3000010000DC5FB197FBF1FC97FBF1F201FBD8
:100B40001C7C17460CF1300C08F801CDEEE7A8F13B
:100B5000010003702188090501D5452100E06521C8
:100B6000A0F1010800F8011C09980FA9A1EB0807E2
:100B7000FF1D00B10120411901EBEA70A169384461
:100B8000081A401EA0612078C00602D42046AFF3A8
:100B90000080099828B1D4E901219047206A401CBF
:100BA00020622078C00622D52046AFF300801EE0E8
:100BB000002E04DBB34502DD01A8805D00E030209B
:100BC000D4E901219047206A401C2062761CAAF1DA
:100BD00001005FEA000A0AD100F00AF9C068016862
:100BE000405CD4E901219047206A401C2062281E05
:100BF000A5F10105DCDC07E0D4E9012118F8010BBF
:100C00009047206A401C2062381EA7F10107F3DCE0
:100C10002046AFF30080032011B041E601694A1C71
:100C200002610878704700B58FB0CDE9013100212D
:100C3000059105497944CDE9031011466846FFF74F
:100C4000EAFB0FB000BD0000E5FFFFFF007B00F0F6
:100C50008000704710B542485421FFF79CFC414882
:100C60005421FFF798FC40485421FFF794FC3F497A
:100C70003B483C4A3F4B08603D490A603A4919608D
:100C8000531C0365481C1065012008653B48344A25
:100C900039A1784400F01AFA20B9384878440A3863
:100CA00000F0D8FA37482F4A35A1784400F00EFA00
:100CB00020B9344878440A3800F0CCFA32482A4A3D
:100CC0002FA1784400F002FA20B92F4878440A385E
:100CD00000F0C0FA40232248DC000021224600F048
:100CE000D1F920B125487844543800F0B3FA1D48B2
:100CF00022464023002100F0C5F920B12148784464
:100D0000543800F0A7FA184822461023002100F0BA
:100D1000B9F9002806D01C487844BDE81040563880
:100D200000F098BA10BD104870B5006D20F00104B5
:100D30000B4800F043FA0B4800F040FA0A4800F074
:100D40003DFA09E0206D20F00105204600F036FA5A
:100D50002046FFF72EFD2C46002CF3D170BD00007D
:100D6000180000206C000020C000002000000020BF
:100D7000040000200800002072000000CA2A0000C1
:100D800077000000B92A0000922A000010B500F098
:100D900049FABDE8104000F040BA70477546FFF7C9
:100DA000D5FCAE4605006946534620F0070085464F
:100DB00018B020B5FFF770FABDE820404FF00006EC
:100DC0004FF000074FF000084FF0000BAC46ACE8C6
:100DD000C009ACE8C009ACE8C009ACE8C00921F022
:100DE00007018D4670470000004870471C01002035
:100DF00000487047340100207047704770477047C3
:100E000038B504460A4600206946AFF30080002842
:100E100008BF38BD02460099204600F022FA0120A2
:100E200038BD012000F060BBF8B5AFF30080054687
:100E300000200C46102000BF0646A819A0420DD97C
:100E4000324669460020AFF30080070008BF00F07B
:100E50004BFB0098A04218BF0546C419FFF7C4FF1A
:100E600005600746F01D20F007004619284600F0EF
:100E70000AF8B44208BFF8BDA21B31463868BDE885
:100E8000F84000F0EEB900210160C0E901107047A0
:100E90001020704730B5B0F10A0271F100034FEA3B
:100EA000900E4EEA817EB0EB0E0061EB91014FEAAD
:100EB000101E4EEA017E10EB0E0041EB11114FEABD
:100EC000102E4EEA016E10EB0E0041EB11214FEA9D
:100ED000104E4EEA014E10EB0E0041EB114140184E
:100EE00041F100014FEAD00040EA41704FEAD101E0
:100EF0004FEA810444EA907410EB800544EB01044E
:100F00006D1944EB0404521BA3414FF0000348BF8A
:100F10000A3200D530BD401C41F1000130BD000057
:100F20002DE9F0411F46044603260168072A01F413
:100F3000006004DB08B116A505E016A503E008B1C2
:100F400015A500E015A521F010002060A069C01EC5
:100F5000A0610FB1401EA0612046AFF300804FB1E9
:100F6000D4E9012138469047206A401C2062C01C09
:100F7000206206E0206AFAE7D4E9012115F8010BA6
:100F80009047761EF8D22046AFF30080BDE8F0818E
:100F90004E414E006E616E00494E4600696E66001D
:100FA0002DE9F047814616468AB0354878440DC889
:100FB0008DE80D0032487844801C03AC0DC884E8ED
:100FC0000D0041F69B300844372190FBF1F290FB75
:100FD000F1F5A5F1800501FB12041B3C02D564422A
:100FE000012000E00020DFF898A080460027FA44A6
:100FF000AAF1BE0A0EE0E0070AD03246684607EBC7
:10100000470101230AEB810102F0DBF98DE80700BB
:1010100064107F1C002CEED1194F7F44AE3F19E0C5
:10102000E80715D007EB04100DF1180A90E80E0040
:101030008AE80E00C068F04201D198190890324643
:10104000012306A903A802F0BCF903AB83E807005B
:101050006D10641C002DE3D14FF001033246694648
:10106000B8F1000F03A802D002F096F901E002F0F7
:10107000A8F9C9E90001C9F808200AB0BDE8F0875D
:101080007827000070B5C468A50713D0650211D495
:10109000B2F5807F09D0B2F5007F06D0B2F5806F3F
:1010A00008D1012300F1240106E05D1E6FF07F46A8
:1010B000B54201D3012070BD0161C361416024F4D8
:1010C00070611143C160002070BD00002DE9F04146
:1010D0000C461646070047D0104600F06FF82078FF
:1010E000611C61280AD0722802D077283CD102E026
:1010F0000125002405E00225042402E0082448F22A
:10110000020511F8010B2B2806D0622809D011F82E
:10111000010C74280AD00BE045F0030544F00204EA
:10112000EFE745F0040544F00104EAE744F0100459
:101130003846214601F022FE411C15D000213161C4
:1011400071604FF40071F560F1617061200704D5A2
:1011500030460222002100F09FF8306D40F001007F
:1011600030653046BDE8F0810020FBE72DE9F04115
:101170000D460646104C206DC10704D0410804D02E
:1011800020F00104F7E722460EE05420FFF7E2FAD0
:1011900007000ED0206D47F001010843542120655F
:1011A0003846FFF7F8F93A4629463046BDE8F0419F
:1011B0008CE70020D6E70000180000202DE9F0475A
:1011C00004464FF000094FF0FF37C568D4E90486A4
:1011D000A80707D0204600F00FF9304601F0BAFD0D
:1011E000002802DA3846BDE8F087280502D54046D7
:1011F000FFF7DFFA4C212046FFF7CDF9206D20F0F4
:10120000010020654846EEE710B50446AFF30080C4
:101210002046BDE81040FFF72AB8002801D0FFF7AC
:101220008FBA704710B5002102A000F029F9012003
:1012300010BD0000534947414252543A2041626E6A
:101240006F726D616C207465726D696E6174696F27
:101250006E00000010B500F02DF9BDE81040FFF75A
:10126000DCBF034640688C46002818BF88423CBF5C
:1012700003464068F8D318681844884207D00CF138
:10128000030020F00700001D411A521A0146081DF4
:101290000A60FFF78EBA00002DE9F04104461646B9
:1012A0000D464769007B80072ED0384601F05EFD71
:1012B00050BB3EB3012E02D0022E25D104E02046C1
:1012C00000F020F905441DE0384601F04DFDE168CD
:1012D000002841F01001E16005DA204600F058F8DE
:1012E0000120BDE8F081C9030BD56268E16A914233
:1012F00000D81146A26911442269891A814200DD91
:1013000008460544002D01DA0220EAE7E16A606838
:10131000E268814206D29103E06203D522F40031F3
:1013200041F01002A6690027AE4213DCE16A814257
:1013300001D90B4600E0034603EB060C2369ACEB36
:10134000030CAC4506DD814201D98C4600E08446A1
:101350009C4505D1A760276042F02000A5620DE002
:10136000AD1BE669AE1B8142A66000D90846C01AD3
:10137000281A20605819606022F0200003490840B4
:10138000E060002084F84870ABE70000BFCFD7FFD3
:10139000C16821F4001141F08001C1600021816029
:1013A000016070472DE9F047814614460E464FF024
:1013B000FF383248D5685769054209D03846A169D7
:1013C00001F00EFD002811DB2C48C0430540E5600C
:1013D0002B4632464946384601F006FDA16920F009
:1013E0000042B21A11440028A16103D02046FFF741
:1013F000CFFF4046BDE8F08770B504460569C06A76
:101400006168884200D80846E16821F42011E16053
:10141000C90312D5A84208D02246411B2846FFF72F
:10142000C1FF10B14FF0FF3070BD0020E562C4E98C
:101430000150E06820F48030E060002070BD10B5FD
:101440000446C06820F02000E060A16AA0698842DC
:101450000DD02046FFF7D0FFE06820F4405040F068
:101460001000E060A06AA0612069E062606044F260
:101470004001E0688843E06010BD000010000200F9
:1014800070B505460C460A2000E06D1C00F033F8EC
:1014900035B128780028F8D102E0641C00F02BF860
:1014A00014B120780028F8D1BDE870400A2000F07F
:1014B00022B8000010B5014602A0FFF7E1FF0120AD
:1014C00010BD000053494752545245443A205265DA
:1014D0006469726563743A2063616E2774206F706B
:1014E000656E3A200000000010B500F02DF8BDE850
:1014F0001040FFF792BE08B569468DF80000032042
:10150000ABBE08BD10B50146C268900703D0900677
:1015100007D5886A0AE0FFF7A9F801210160881E53
:1015200010BD8B69486818440B69C01A91F848309F
:101530001BB191F84910401A10BD1103FCD50028C9
:10154000FADD401E10BD000010B5012805D00021B5
:1015500003A0FFF795FF012010BD09A1F8E70000E7
:1015600053494752544D454D3A204F7574206F668C
:101570002068656170206D656D6F727900000000F4
:101580003A2048656170206D656D6F727920636FD8
:101590007272757074656400FEE7000070470000A9
:1015A000EFF3108072B600BFFEE7000070B5866DE5
:1015B000044600F02FF994F83510022925D105468C
:1015C0002068216C026822F016020260426922F053
:1015D0008002426109B9A16C19B1016821F00801CA
:1015E0000160016821F00101016000BF206800680E
:1015F000C0070ED000F00EF9401B0628F6D32020BD
:101600006065032084F835000CE0802060650120CF
:1016100008E0E06D3F2101FA00F0B060012084F89D
:1016200035000020002184F8341070BD90F835108A
:10163000022909D1052180F835100068016821F0E0
:101640000101016000207047802141650120704741
:10165000B0B5044600F0DEF8054640F21000C2F2D4
:1016600000000078611C18BF044400BF00F0D2F8ED
:10167000401BA042FAD3B0BD2DE9F04F83B000F17A
:101680003E4202F1FF724FEAB22242F2004701925B
:10169000C4F202070A224FF0010E00254FF0000AA3
:1016A0004FF00008B84208BF092200920AE000BFCC
:1016B00008F101080AF1040AB8F1100F05F102055A
:1016C00000F0A4800C680EFA08FB14EA0B09EFD0B6
:1016D0004C6804F0030CACF1010EBEF1010F11D8FF
:1016E0000322876802FA05F6CA68B743AA403A435C
:1016F00082604268C4F3001722EA0B0207FA08F777
:101700003A434260BCF1030F1CD0C26803238E68C9
:1017100003FA05F7BA4306FA05F73A43BCF1020F9C
:10172000C2600FD16FF0030202EA580202440AF0CD
:101730001C060F23176A03FA06F40B69A743B3408C
:101740003B431362026803234F68AB409A4307F0A0
:101750000303AB401A4317F4403F4FF0010E026001
:10176000A6D0002243F644030292C4F202031A6890
:1017700043F6004442F480421A601A68C4F201043D
:1017800002F480420292029A28F003024FF6084BBC
:101790002244CFF6FF7B52F80B300AF00C070F26DD
:1017A000BE4023EA060C019B009E092B38BF1E4653
:1017B00006FA07F747EA0C0342F80B30A2684B68B9
:1017C00042EA090743F60C4CDE0258BF22EA090739
:1017D000A760C4F2010CDCF800209E0242EA09076F
:1017E00058BF22EA0907CCF8007062689E0342EAFB
:1017F000090758BF22EA090767602268DB0342EA4B
:10180000090358BF22EA0903236051E703B0BDE88A
:10181000F08F000040F20420C2F200000068704720
:1018200040F2100040F20421C2F20000C2F20001B6
:1018300000780A68104408607047000080B543F6DD
:101840000040C4F20200016841F4007101600168C7
:1018500041F480610160016841F4807101600320FE
:1018600000F060F80F2000F005F800F02BF80020E1
:1018700080BD0000B0B540F21002C2F2000240F29A
:101880000C011278C2F200014FF47A730968B3FBBD
:10189000F2F20446B1FBF2F1084600F037FB0F2CE0
:1018A0004FF001050CD858B94FF0FF302146002207
:1018B000002500F027F840F21400C2F20000046096
:1018C0002846B0BD82B0002043F640010190C4F22A
:1018D00002014A6842F480424A604A6802F4804247
:1018E0000192019A0090086840F0805008600868F2
:1018F00000F080500090009802B0704780B501F071
:10190000EFF980BD70B514460D46064601F0F8F9B2
:101910002946224600F0F6FE0146304601F0F8F96D
:1019200070BD000080B501F005FA80BD70B582B0D1
:101930000020019043F64000C4F2020001684026F6
:1019400041F0805101600068C4F20E2600F0805022
:101950000190019847F204050120C4F200053060AF
:10196000FFF758FF044600BF2868C00306D4FFF7FE
:1019700051FF001BB0F57A7FF6D90EE001207060B0
:10198000FFF748FF044600BF2868800308D4FFF72C
:1019900041FF001BB0F57A7FF6D9032002B070BD7D
:1019A000002002B070BD00002DE9F041002800F0D9
:1019B0008B8043F60808C4F202080446D8F8F803FE
:1019C0000D4600F00F00884207D288F8F853D8F887
:1019D000F80300F00F00A84276D12068810717D5E0
:1019E000410705D5D8F8001041F4E051C8F80010BF
:1019F000010705D5D8F8001041F46041C8F800107F
:101A0000D8F80010A26821F0F0011143C8F80010C6
:101A1000C0073FD1D8F8F80300F00F00A84207D95B
:101A200088F8F853D8F8F80300F00F00A8424BD11B
:101A30002068410707D5D8F80010E26821F4E0518A
:101A40001143C8F80010000708D5D8F80000216934
:101A500020F4604040EAC100C8F8000000F07EF8C1
:101A6000D8F8001043F24072C1F30311C0F600022F
:101A7000515C40F20C0220FA01F140F21400C2F273
:101A800000000068C2F200021160FFF7F3FE0020C0
:101A9000BDE8F0816068811E022907D258F8081C51
:101AA00089015CBF0120BDE8F08110E0012807D169
:101AB00058F8081C89035CBF0120BDE8F08106E0EE
:101AC00058F8081C890702D40120BDE8F081D8F835
:101AD000001021F003010843C8F80000FFF79AFE48
:101AE000064641F2883700BFD8F80000616800F070
:101AF0000C00B0EB810F8DD0FFF78CFE801BB8423D
:101B0000F2D90320BDE8F08140F20C00C2F20000DF
:101B10000068704780B5FFF7F7FF43F60801C4F28D
:101B20000201096843F25072C1F38221C0F600023B
:101B3000515CC84080BD000080B5FFF7E5FF43F66B
:101B40000801C4F20201096843F25072C1F3423144
:101B5000C0F60002515CC84080BD000010B543F6DD
:101B60000404C4F20204606800F00C0008280AD0E3
:101B7000042819BF42F20040C0F2F40047F64000CA
:101B8000C0F27D1010BD206821682368490247F625
:101B90004001C0F27D1100F03F02C3F388105CBF2A
:101BA00042F20041C0F2F401A1FB00010023FEF764
:101BB00085FB21680222C1F3014102EB4101B0FB28
:101BC000F1F010BD2DE9F04182B0002800F0A280B4
:101BD0000446007843F60006C007C4F2020643D06C
:101BE000B06800F00C00042805D1306880033BD5B4
:101BF0006068C8BB8EE0B06800F00C00082802D115
:101C000070684002F1D46568B5F5A02F0AD0B5F52B
:101C1000803F0BD0306820F480303060306820F492
:101C2000802006E0306840F480203060306840F466
:101C300080303060FFF7EEFD002D054611D000BF6B
:101C40003068800310D4FFF7E5FD401B6428F7D906
:101C500022E100BFFFF7DEFD401B64284FF00300C8
:101C600055D830688003F5D4207880071AD5B0683D
:101C700010F00C0F09D0B06800F00C00082840F0FC
:101C80008A807068400200F186803068800702D543
:101C9000E06801283ED13068216920F0F80040EA70
:101CA000C10030602078000738D4207840074CD439
:101CB000A5695DB3B06800F00C00082840F09E8074
:101CC000012D27D07068E16900F480028A4221D199
:101CD000216A00F03F028A421CD147F6C071626A55
:101CE0000140B1EB821F15D1A26A0023CFF6FF732A
:101CF00003EBC23200F440316FF30F02914209D17D
:101D0000E16A00F07060B0EB016F03D1002002B017
:101D1000BDE8F081012002B0BDE8F08160690028D3
:101D200040F20000C4F2472057D00121C0F8801EC5
:101D3000FFF770FD054600BF706F8007B5D4FFF751
:101D400069FD401B0228F7D9A6E0306C10F08058DE
:101D50000AD100200190306C40F080503064306C2B
:101D600000F080500190019847F20007C4F200078C
:101D70003868C00524D4386840F480703860FFF7B4
:101D800049FD05463868C0051AD4FFF743FD401BDE
:101D90000228F7D980E0E068002851D00020C4F282
:101DA000472001210160FFF735FD054630688007B7
:101DB0003FF571AFFFF72EFD401B0228F6D96BE00F
:101DC000A568052D50D0012D52D0306F20F00100B4
:101DD0003067306F20F004004DE00021C0F8801E15
:101DE000FFF718FD054600BF706F80077FF55DAFF8
:101DF000FFF710FD401B0228F6D94DE00027C4F282
:101E0000472700203866FFF705FD022D05460BD158
:101E10003068800158D5FFF7FDFC401B02284FF0C9
:101E20000300F5D973E700BF306880017FF56EAF1E
:101E3000FFF7F0FC401B02284FF00300F4D966E7DF
:101E40000020C4F2472000210160FFF7E3FC0546B3
:101E5000306880077FF526AFFFF7DCFC401B0228C7
:101E60004FF00300F4D952E7306F40F004003067C0
:101E7000306F40F001003067FFF7CCFC002D0546C5
:101E800041F2883714D000BF306F800713D4FFF7BA
:101E9000C1FC401BB842F7D9032002B0BDE8F08175
:101EA000FFF7B8FC401BB8424FF003003FF62FAFDE
:101EB000306F8007F4D4B8F1000F7FF4F9AE306CC6
:101EC00020F080503064F3E604F11C052FCD084368
:101ED0000021CFF6FF7140EA821001EBC3316FF3AE
:101EE0000F0140EA05600843706001203866FFF783
:101EF00091FC0446306880013FF508AFFFF78AFC8B
:101F0000001B02284FF00300F4D900E780B500F071
:101F100013FC80BD704700007047000010B590F8BA
:101F20003C20012A4FF0020252D0012380F83C30BD
:101F300080F83D200268D2F804E0D2F808C00C68AE
:101F40002EF07003234341F2FF74C4F20004A24256
:101F500053600DDC40F2FF73C4F200039A4215DCBB
:101F6000B2F1804F29D040F20043C4F2000322E0D6
:101F700040F2FF33C4F201039A4212DC41F600033F
:101F8000C4F200039A4218D0002312E040F6000386
:101F9000C4F200039A4210D040F60043C4F200039A
:101FA00009E044F20003C4F201039A4205D040F272
:101FB0000043C4F201039A4204D149682CF0800323
:101FC000194391600121002280F83D1080F83C20E7
:101FD000104610BD002804BF0120704710B504460C
:101FE00090F83D0028B9002084F83C00204600F01D
:101FF0001FF8022084F83D002068211D00F022FC1B
:10200000012084F8460084F83E0084F83F0084F8FC
:10201000400084F8410084F8420084F8430084F8CA
:10202000440084F8450084F83D00002010BD000005
:1020300080B582B0006840F20041C4F200018842DD
:1020400001D002B080BD0020019043F64000C4F2F0
:1020500002000168002241F00201016000680021D5
:1020600000F00200019001981D20FFF74BFC1D209D
:10207000FFF744FC02B080BD10B5044690F83C0068
:1020800001284FF0020008BF10BD012284F83C2057
:1020900084F83D0020684FF6777382689A43826027
:1020A0000A684F2A0FDC1F2A22DD202A23D0302A7B
:1020B00021D0402A4DD14B68CA68194600F068FC0F
:1020C000206840213BE06F2A17DDB2F5005F20D089
:1020D000B2F5805F2AD0702A3BD1D1E9012CCB68C0
:1020E000614600F041FC2068816841F077011AE008
:1020F0000AB1102A2DD1114621E0502A18D0602AA9
:1021000027D14B68CA68194600F054FC206860214A
:1021100015E0D1E9012CCB68614600F025FC206870
:10212000816841F48041816000200BE0002009E0DB
:102130004B68CA68194600F02BFC2068502100F05B
:102140001FFC0020012184F83D10002184F83C1080
:1021500010BD0120F6E700007047000010B50446EE
:1021600000680169890744BFC1685FEA817138D49A
:1021700020680169490744BFC1685FEA41713CD4E6
:1021800020680169090744BFC1685FEA017141D451
:1021900020680169C90644BFC1685FEAC16145D4CE
:1021A00020680169C9071CBFC1685FEAC1714AD1D3
:1021B00020680169090644BFC1685FEA016149D42A
:1021C00020680169490644BFC1685FEA416148D49B
:1021D00020680169890644BFC1685FEA816147D40C
:1021E00010BD6FF002010161012121778069800734
:1021F00045D02046FFF7B0FF47E06FF004010161D2
:1022000002212177806910F4407F41D02046FFF7FA
:10221000A3FF43E06FF00801016104212177C06949
:1022200080073ED02046FFF797FF40E06FF0100197
:10223000016108212177C06910F4407F3AD020461F
:10224000FFF78AFF3CE06FF001010161204600F0DA
:102250003FF8ADE76FF0800101612046FFF75AFEBD
:10226000AEE76FF040010161204600F033F8AFE7C0
:102270006FF0200101612046FFF74EFE10BD2046A1
:1022800000F022F8204600F021F8002020776FE7C8
:10229000204600F019F8204600F018F800202077BA
:1022A0006EE7204600F010F8204600F00FF80020FE
:1022B00020776DE7204600F007F8204600F006F88A
:1022C000002020776CE70000704700007047000096
:1022D0007047000070470000704700007047000022
:1022E000B0B582B0036804461868D9685A6900F02E
:1022F0002F05202D01F0200505D125B1204600F045
:10230000A7FB02B0B0BD5FEA007C1EBF02F0010E69
:1023100001F4907212EB0E0248D1226B0840C10604
:102320003BD5012A39D100200190186801905868E6
:10233000019001985869400640D4A08DE18DE28D4E
:10234000002A1CBF401A5FEA004101D102B0B0BDB3
:10235000216851E8031F226821F4907142E80313B9
:10236000002BF5D1216851E8051F226821F00101F9
:1023700042E80513002BF5D1202184F83E100021FE
:10238000216300BF216851E8031F226821F010017A
:1023900042E80313002BF5D152E0010656D4400663
:1023A000D4D5204600F048FB02B0B0BDC20718BF2C
:1023B00011F480724FD1420753D459E0A06B0168E9
:1023C00049688AB2002AC1D0A38D9A42BED2E18563
:1023D000C069B0F5807F30D0206850E8030F2168D5
:1023E00020F4807041E80302002AF5D1206850E80B
:1023F000050F216820F0010041E80502002AF5D10F
:10240000206850E8050F216820F0400041E80502EF
:10241000002AF5D1202084F83E000020206300BF70
:10242000206850E8030F216820F0100041E8030203
:10243000002AF5D1A06BFFF7B9F8A08DE18D401A05
:1024400081B22046FFF748FF02B0B0BD204600F041
:10245000CFFB02B0B0BD226C42F001022264420701
:1024600006D5BEF1000F03D0226C42F002022264B6
:10247000820706D5BEF1000F03D0226C42F00402A1
:102480002264BCF1000F06D55EEA050203D0226C7F
:1024900042F008022264226C002A3FF457AF084041
:1024A000800602D5204600F0D3FA20684069216CEE
:1024B00000F0400001F00801401827D0204600F04D
:1024C00093FA2068406940061BD500BF206850E899
:1024D000050F216820F0400041E80502002AF5D1EF
:1024E000A06B70B142F6D911C0F600010165FFF78B
:1024F0009DF800283FF42AAFA06B016D884702B019
:10250000B0BD2046FFF7EAFE02B0B0BD2046FFF79F
:10251000E5FE0020206402B0B0BD0000002804BF2A
:102520000120704710B5044690F83D0028B90020FE
:1025300084F83C00204600F021F8242084F83D0077
:102540002068C16821F40051C160204600F0E2FA21
:102550002068016921F490410161416921F02A015B
:102560004161C16841F40051C16000202021206414
:1025700084F83D1084F83E1010BD000080B586B090
:1025800041F200010068C4F2010100228842059274
:10259000CDE903220292019201D006B080BD43F63C
:1025A00030000092C4F20200436943F0100343611B
:1025B000436903F010030093009B0092036843F00B
:1025C00001030360006800F00100009000984FF4E0
:1025D000C06001900220CDE9020203200490072090
:1025E000059001F5704001A9FFF746F8252000216C
:1025F0000022FFF787F92520FFF780F906B080BD9C
:102600007047000070470000FEE7000082B0002025
:1026100043F630010190C4F202010A6842F08002E0
:102620000A600A6802F080020192019A009008682C
:1026300040F001000860086800F001000090009878
:1026400002B0704780B586B040F2781040F2004288
:102650000021C2F20000C4F2000242F2273342F22B
:102660000F7CCDE90411CDE90211CDE90011C0E9DB
:102670000023C0E9021C01618161FFF7ABFC002867
:1026800018BFFEF78DFF4FF48050029040F2781093
:10269000C2F2000002A9FFF7EFFC002818BFFEF706
:1026A0007FFF0020CDE9000040F27810C2F2000068
:1026B0006946FFF733FC002818BFFEF771FF06B02C
:1026C00080BD000080B540F2C01041F20001C2F2AE
:1026D0000000C4F2010100234FF00C0C4FF4E13272
:1026E00080E80E00C0E90333C0E905C3C361FFF70A
:1026F00015FF002818BFFEF753FF80BDFEE700005E
:10270000FEE7000000F0070080F00703042B28BF5D
:1027100004234FF0FF3C03380CFA03F338BF0020CA
:10272000994381400CFA00F022EA00000843704708
:102730007047000070470000B0B501380024B4EBCA
:10274000106F1CBF0120B0BD4EF21005CEF2000587
:1027500068604FF0FF300F2100F0DAFA0720AC601C
:1027600028602046B0BD000080B5FFF759F880BD55
:1027700010B592B006AC20463021FDF70CFF0020CA
:1027800043F640010590CDE90300CDE9010000903A
:10279000C4F202010A6842F080520A60096801F03E
:1027A000805100910099009047F20000C4F20000AF
:1027B000016841F44041016000684FF4800100F479
:1027C000404000900098012006904FF480300D9119
:1027D0001921079002200E914FF4B4710C90CDE9AD
:1027E0000F10042011902046FFF7ECF9B0B9FFF765
:1027F0009DF898B90F2001900220029000200390CC
:102800004FF4A05004904FF48050059001A805218A
:10281000FFF7CAF8002804BF12B010BDFEF7C0FED3
:102820004EF68850CEF20000016841F4700101605C
:102830007047000080B540F27810C2F20000FFF748
:102840008DFC80BD10B540F6FF3E0368C4F2000E5B
:1028500040F2004C7045C4F2010C0FDCB0F1804F27
:1028600019D040F20042C4F20002904213D040F668
:102870000002C4F2000290420DD010E040F6004287
:10288000C4F20002904206D0604504D00022C4F297
:102890000102904203D14A6823F07003134341F6CA
:1028A000FF72C4F2000290420DDC70451FDCB0F1F3
:1028B000804F41D040F20042C4F2000290423BD02F
:1028C00040F6000221E043F6FF72C4F2010290429A
:1028D00020DC42F20002C4F2000290422CD000221E
:1028E000C4F20102904227D0604525D028E040F68E
:1028F0000042C4F2000290421ED041F60002C4F22F
:102900000002904218D041F60042C4F20002904208
:1029100012D015E044F20002C4F2010290420BD042
:1029200044F60002C4F20102904205D044F2004293
:10293000C4F20102904203D1CA6823F440731343E6
:1029400023F080024B69D1F800E08C681A430260E2
:10295000C46240F48062C0F828E0624504BF09699F
:1029600001630121416110BDD0F808C011432CF46E
:102970007F4C41EA032141EA0C018160704700006D
:10298000826822F07002114341F0070181607047B4
:10299000D0F820C0036A23F001030362836923F0A7
:1029A000F00343EA02122CF00A0319438261016228
:1029B00070470000036A23F0100303628369D0F8B4
:1029C00020C023F4704343EA02322CF0A00343EA10
:1029D000011182610162704780B5806B0021C18561
:1029E000C184FFF77BFC80BD016851E8031F0268CA
:1029F00021F4907142E80313002BF5D1016851E8EE
:102A0000051F026821F0010142E80513002BF5D1F2
:102A1000016B01290AD100BF016851E8031F026858
:102A200021F0100142E80313002BF5D1202180F89A
:102A30003E1000210163704780B50168CA6822F02A
:102A40004002CA60202180F83D10FFF7DBFD80BD09
:102A500080B582B090F83E1022291ED18268B2F56E
:102A6000805F02D10169002948D0816AB2F5805F98
:102A700007D00AB9026922B10268526802F07F02E7
:102A800001E0026852680A700121826A1144816281
:102A9000C18D01390A04C18501D002B080BD016831
:102AA000CA6822F02002CA60CA6822F48072CA6032
:102AB0004A6922F001024A61202180F83E10016B30
:102AC000012923D100210163016851E8031F026835
:102AD00021F0100142E80313002BF5D101680A68C8
:102AE000D20606D5002201920A6801924968019136
:102AF0000199818DFFF7F0FB02B080BD0168826A09
:102B000049686FF35F2111800221BEE7FFF778FD6E
:102B100002B080BD10B504460068D4E902C2236942
:102B2000016921F4405111430161626943EA0C01DA
:102B3000E3691143C268194349F20C639A43114394
:102B4000C1604169A26921F4407141F2004311431F
:102B500040F48062C4F201039A42416102D1FEF75F
:102B6000EBFF01E0FEF7D6FFE16963681922B1F5DA
:102B7000004FA0FB02011CD15A00DB0FFDF79EFBAA
:102B800048F21F51C5F2EB11A0FB01235A096FF067
:102B9000630302FB0300322303EBC000A0FB01012F
:102BA0004FF4F87000EA111000EB0210C1F342116B
:102BB0001AE09A009B0FFDF781FB48F21F51C5F206
:102BC000EB11A0FB01235A096FF0630302FB030022
:102BD000322303EB0010A0FB0101F02000EA5110AA
:102BE00000EB0210C1F3431122680843906010BD4E
:102BF00090F83D10212923D18168B1F5805F01D182
:102C0000016931B1016A02684B1C036209785160A5
:102C100007E0016A036831F8022B6FF35F225A6004
:102C20000162C18C01390A04C18418BF7047006871
:102C3000C16821F08001C160C16841F04001C160FC
:102C40007047000080B540F2C010C2F20000FFF7EC
:102C500047FB80BDFEE7000080B5FDF738FC80BD76
:102C6000F0B581B012F1100F1DD214460E46054684
:102C70000B2A02D2EC726CB911E004F1100020F0C2
:102C80000F07384600F018F847F00041C5E9000486
:102C9000A9600546284631462246FDF737FC00204C
:102CA000285501B0F0BDFDF70DFD40F27410C2F2E1
:102CB000000000687047000010B50446002808BFF7
:102CC000012400BF2046FDF745FD002818BF10BDB8
:102CD000FFF7EBFF08B18047F4E7002010BD0000CC
:102CE000002848BF704700F01F01012202FA01F1DD
:102CF0004EF200124009CEF2000242F82010704756
:102D00004EF60C50CEF200000068C0F3022070476F
:102D10004EF6145300F00F02CEF2000309011A44DC
:102D200000F16043B0F1FF3FC8BF03F5644211708A
:102D3000704700004EF60C51CEF200010A684FF6C3
:102D4000FF031A4060F30A2242F0806040F0FD70F9
:102D50000860704748F20101411A0020022988BF2B
:102D60004FF0FF30704700000020704748F201012B
:102D7000411A0020032938BF0120704710B5C8B19F
:102D8000044600783A2815D10FA12046FDF72CFC07
:102D900098B10FA12046FDF727FC88B10EA120466F
:102DA000FDF722FC4FF0FF31002808BF48F2030175
:102DB000084610BD4FF0FF3010BD48F2010010BDB5
:102DC00048F2020010BD00BF3A535444494E00007F
:102DD0003A5354444F5554003A53544445525200C8
:102DE0004FF0FF307047000010B548F203018842F1
:102DF00014460AD048F2020188420DD154B100BFF6
:102E000000F04CF8013CFBD104E01CB100F044F8A8
:102E1000013CFBD1002010BD4FF0FF3010BD000081
:102E200041F20001C4F201010A685206FCD5C2B2A7
:102E30004A607047FEF702FDFFF79AFCFFF7E6FBDA
:102E4000FFF700FCFFF73EFC00F002F8FEE7000091
:102E500084B043F26F75C0F600052846FFF7FCFE0C
:102E600001AC024620462946FFF7FAFE07A500BF3F
:102E70009DF90F0001990028284658BF2146FDF70B
:102E800095FA4FF47A70FEF7E3FBF1E76E616D653A
:102E90003A25730D0A00000000BE704700BE70475F
:102EA0005FEA400C08BF91F0000F4FEA8C234FEA15
:102EB000C12243EA51514FEA1C5018BF00F5F040BF
:102EC0004FEA300018BF41F000415FEA6C5C00F04F
:102ED0002980BCF1FF3F08BF40F080407047130CD1
:102EE00006BF12044FF0100C4FF0000C130E04BF7D
:102EF00012020CF1080C130F04BF12010CF1040CA8
:102F0000930F04BF92000CF1020CD30F04BF5200C8
:102F10000CF1010C11464FF00002A0F11F00A0EBD4
:102F20000C00704711F0004F08BF704731F00041AE
:102F30003FF4D5AF0B0C06BF09044FF0100C4FF057
:102F4000000C0B0E04BF09020CF1080C0B0F04BFA0
:102F500009010CF1040C8B0F04BF89000CF1020C69
:102F6000CB0F04BF49000CF1010CCCF1200322FA75
:102F700003F341EA030102FA0CF2A0EB0C0000F1AA
:102F80000100704723F07F4720F07F4C80EA030068
:102F900000F00040ACEB070303F57C5303F1FF03A3
:102FA0002DE9804909B44FEA144324EA03484FEA63
:102FB000154B25EA0B4E0FF2042606EB13273E783D
:102FC00003FB0667C7F5000707FB06F64FEAD64680
:102FD00006F102064FEA543707FB066CCCF1005CA1
:102FE0004FEA1C472CEA074C0CFB06F507FB06F4DE
:102FF00004EB15464FEA961649085FEA320234BFE1
:1030000000204FF000404FEAD13706FB07FC4FEAA3
:103010001C4C0CFB0BF7D21B03FB0CF761EB0701FD
:103020000CFB0EF7B0EB074072EB17420CFB08F7F6
:1030300034BFA2EB0742B2EB074261EB17414FEA04
:103040000C444FEA910706FB07FC4FEA1C4C0CFBB3
:103050000BF7B0EBC74072EB573203FB0CF734BFF2
:10306000A2EBC742B2EBC74261EB57310CFB0EF744
:10307000B0EBC70072EB57720CFB08F734BFA2EB42
:10308000C702B2EBC70261EB57714FEA816141EAB7
:1030900092114FEA826242EA90124FEA806004EB9A
:1030A000CC04039F4FEAD13706FB07FC4FEA1C4CC8
:1030B0000CFB0BF7D21B03FB0CF761EB07010CFBBE
:1030C0000EF7B0EB074072EB17420CFB08F734BF6A
:1030D000A2EB0742B2EB074261EB17414FEA8C5576
:1030E00004EB9C244FEA910706FB07FC4FEA1C4CBB
:1030F0000CFB0BF7B0EBC74072EB573203FB0CF73E
:1031000034BFA2EBC742B2EBC74261EB57310CFBB5
:103110000EF7B0EBC70072EB57720CFB08F734BF29
:10312000A2EBC702B2EBC70261EB57714FEA8161B4
:1031300041EA92114FEA826242EA90124FEA8060BD
:1031400015EB4C2544F100044FEAD13706FB07FC90
:103150004FEA1C4C0CFB0BF7D21B03FB0CF761EB8B
:1031600007010CFB0EF7B0EB074072EB17420CFBAC
:1031700008F734BFA2EB0742B2EB074261EB1741FD
:103180004FEA813141EA92414FEA823242EA90426B
:103190004FEA80304FEA0C7615EB1C1544F1000421
:1031A00048EA03434EEA0B484FF0000EB2EB080C1E
:1031B00071EB030724BF624639464EEB0E0E4FF00B
:1031C000000B0018524149414BEB0B0BB2EB080CC2
:1031D00071EB03077BF1000B24BF624639464EEBCF
:1031E0000E0E4FF0000B0018524149414BEB0B0BF8
:1031F000B2EB080C71EB03077BF1000B24BF6246B6
:1032000039464EEB0E0E51EA020718BF46F0010692
:1032100016EB0E7655F1000254F1000103D5BDE81E
:103220008901BDE80088BDE88901BDE80048B619FC
:10323000524141EB0101A3F10103704780807F7E81
:103240007D7C7B7A7978777676757473727171701C
:103250006F6E6E6D6C6C6B6A6A69686867666665CE
:103260006464636362616160605F5F5E5E5D5D5C5C
:103270005C5B5B5A5A5959585857575656555555CD
:103280005454535352525251515050504F4F4F4E2D
:103290004E4D4D4D4C4C4C4B4B4B4A4A4A4949497B
:1032A00048484847474747464646454545444444BD
:1032B0004443434343424242424141419C46002BE6
:1032C00030D477002BD04FEA37071CB503B44FF04A
:1032D00010004FF01001BAF1000F06D0BCF1000F42
:1032E000DCBF40F0080040F008014FF000000FBCC8
:1032F000BDE810400BF1010BBBF1010F08BF5FEA05
:10330000170722BF12F1010211F101014FF0004134
:1033100043F1000300F0004043EA00007047F9D396
:103320005708D0E746EA06464FEA164613F1400F23
:103330001FDD13F1200FDFBF16430A4600212033A3
:103340005B42BED0C3F1200746EA06464FEA164666
:1033500002FA07F746EA070622FA03F2C3F120074A
:1033600001FA07F742EA070221FA03F14FF00003DE
:10337000A7E746EA020646EA06464FEA164646EA46
:103380000106BCBF46EA0646360C4FF000034FF07C
:1033900000024FF0000194E72DE9804C70B49A468A
:1033A000934691E8380007C831EA400C48BF34EA38
:1033B000430C03D5FFF7E6FDFFF780FFF0BCBDE847
:1033C000008C2DE9804C70B49A46934691E8380001
:1033D00007C810F0804F08BF13F0804F03D100F0F2
:1033E00005F8FFF76BFFF0BCBDE8008C20F07F47CD
:1033F00023F07F4C80EA030000F0004007EB0C0351
:10340000A3F57C53A3F1FE0392F0000F00F0B3800C
:1034100095F0000F00F077802DE901494FEA114047
:1034200021EA00484FEA144624EA064700FB06FC5E
:1034300008FB06F607FB08F818EB06484CEB164CA1
:1034400000FB07F718EB07484CEB17404FEA124B0D
:1034500022EA0B4E4FEA154625EA06470BFB06FC0F
:103460000EFB06F607FB0EFE1EEB064E4CEB164C53
:103470000BFB07F71EEB074E4CEB174B18EB0B083B
:1034800040F1000018EB0E0B58EB000840F1000073
:103490008F1A4FF000014FF000063CBFC943661B76
:1034A00014BFB5EB040C00213CBFC943F61B4FEA27
:1034B000174427EA04454FEA1C472CEA074C04FB53
:1034C000076205FB07F70CFB05F616EB074642EB18
:1034D000174204FB0CFC16EB0C4642EB1C421BEBA8
:1034E000060658EB020241414EEA8E0E46EA9E065F
:1034F00001D5BDE80189B619524141EB0101A3F1A3
:103500000103BDE801894FEA144524EA05464FEA64
:10351000114721EA074C05FB07F406FB07F70CFBF4
:1035200006F111EB074144EB174405FB0CFC11EBD2
:103530000C4144EB1C444FEA124722EA074C05FBBE
:1035400007F206FB07F70CFB06F616EB074642EB05
:10355000174205FB0CFC16EB0C4642EB1C456A18A7
:1035600054F1000148BF7047B619524141EB0101C7
:10357000A3F10103704795F0000F37D04FEA1142D5
:1035800021EA02464FEA144724EA074C02FB07F1FE
:1035900006FB07F70CFB06F414EB074441EB17415D
:1035A00002FB0CFC14EB0C4441EB1C414FEA1547A9
:1035B00025EA074C02FB07F506FB07F70CFB06F6AE
:1035C00016EB074645EB174502FB0CFC16EB0C46C9
:1035D00045EB1C42121951F1000148BF7047B61962
:1035E000524141EB0101A3F1010370474FEA144539
:1035F00024EA05464FEA114721EA074C05FB07F18B
:1036000006FB07F70CFB06F212EB074241EB1741F2
:1036100005FB0CFC12EB0C4251EB1C414FF0000679
:1036200048BF7047921841EB0101A3F101037047B5
:1036300003B401984100009850EAC12018BF04204B
:103640004A0D18BF40F0010040F2FF72B2EB515F2B
:1036500008BF40F00200012808BF052002B07047F3
:1036600010B500290AD00878002807D0054878440A
:10367000FCF7BAFF002801D0002010BD02487844B2
:1036800010BD00002E01000026010000F1EE100A1E
:103690004FF6FF71C0F2C03120EA010040F04070E7
:1036A000E1EE100A7047FDF783B900000240000008
:1036B000000000A00000000005400000000000C85D
:1036C000000000000C4000000000409C00000000D2
:1036D000194000000020BCBE000000003440000083
:1036E000BFC91B8E00000004B5400000504BCFD076
:1036F0006607E2CF010000006C4100003E8251AA43
:10370000DFEEA73401000000D9420000DCB5A0E2E2
:103710003A301F97FFFFFFFFB4450000FD25A0C80A
:10372000E9A3C14FFFFFFFFFFF3F00000000008043
:1037300000000000FF3F00000000008000000000CB
:103740000000000000000000010203040607080951
:1037500000000000010203043A5354444552520051
:103760003A535444494E003A5354444F555400631D
:1037700068616E67787565646F6E6700B8370008BA
:103780000000002018000000E8010008D037000801
:1037900018000020F0070000040200081C000000D0
:1037A00043000000F8FFFFFF0C0000000E000000C7
:1037B0000F0000002E0000000000000000000000CC
:1037C000000000000024F4000100000010000000D0
:04000005080001AD41
:00000001FF
